{
  "_format": "hh-sol-artifact-1",
  "contractName": "SoulboundCredential",
  "sourceName": "contracts/SoulboundCredential.sol",
  "abi": [
    {
      "inputs": [
        {
          "internalType": "address",
          "name": "initialOwner",
          "type": "address"
        }
      ],
      "stateMutability": "nonpayable",
      "type": "constructor"
    },
    {
      "inputs": [
        {
          "internalType": "address",
          "name": "sender",
          "type": "address"
        },
        {
          "internalType": "uint256",
          "name": "tokenId",
          "type": "uint256"
        },
        {
          "internalType": "address",
          "name": "owner",
          "type": "address"
        }
      ],
      "name": "ERC721IncorrectOwner",
      "type": "error"
    },
    {
      "inputs": [
        {
          "internalType": "address",
          "name": "operator",
          "type": "address"
        },
        {
          "internalType": "uint256",
          "name": "tokenId",
          "type": "uint256"
        }
      ],
      "name": "ERC721InsufficientApproval",
      "type": "error"
    },
    {
      "inputs": [
        {
          "internalType": "address",
          "name": "approver",
          "type": "address"
        }
      ],
      "name": "ERC721InvalidApprover",
      "type": "error"
    },
    {
      "inputs": [
        {
          "internalType": "address",
          "name": "operator",
          "type": "address"
        }
      ],
      "name": "ERC721InvalidOperator",
      "type": "error"
    },
    {
      "inputs": [
        {
          "internalType": "address",
          "name": "owner",
          "type": "address"
        }
      ],
      "name": "ERC721InvalidOwner",
      "type": "error"
    },
    {
      "inputs": [
        {
          "internalType": "address",
          "name": "receiver",
          "type": "address"
        }
      ],
      "name": "ERC721InvalidReceiver",
      "type": "error"
    },
    {
      "inputs": [
        {
          "internalType": "address",
          "name": "sender",
          "type": "address"
        }
      ],
      "name": "ERC721InvalidSender",
      "type": "error"
    },
    {
      "inputs": [
        {
          "internalType": "uint256",
          "name": "tokenId",
          "type": "uint256"
        }
      ],
      "name": "ERC721NonexistentToken",
      "type": "error"
    },
    {
      "inputs": [
        {
          "internalType": "address",
          "name": "owner",
          "type": "address"
        }
      ],
      "name": "OwnableInvalidOwner",
      "type": "error"
    },
    {
      "inputs": [
        {
          "internalType": "address",
          "name": "account",
          "type": "address"
        }
      ],
      "name": "OwnableUnauthorizedAccount",
      "type": "error"
    },
    {
      "anonymous": false,
      "inputs": [
        {
          "indexed": true,
          "internalType": "address",
          "name": "owner",
          "type": "address"
        },
        {
          "indexed": true,
          "internalType": "address",
          "name": "approved",
          "type": "address"
        },
        {
          "indexed": true,
          "internalType": "uint256",
          "name": "tokenId",
          "type": "uint256"
        }
      ],
      "name": "Approval",
      "type": "event"
    },
    {
      "anonymous": false,
      "inputs": [
        {
          "indexed": true,
          "internalType": "address",
          "name": "owner",
          "type": "address"
        },
        {
          "indexed": true,
          "internalType": "address",
          "name": "operator",
          "type": "address"
        },
        {
          "indexed": false,
          "internalType": "bool",
          "name": "approved",
          "type": "bool"
        }
      ],
      "name": "ApprovalForAll",
      "type": "event"
    },
    {
      "anonymous": false,
      "inputs": [
        {
          "indexed": true,
          "internalType": "address",
          "name": "previousOwner",
          "type": "address"
        },
        {
          "indexed": true,
          "internalType": "address",
          "name": "newOwner",
          "type": "address"
        }
      ],
      "name": "OwnershipTransferred",
      "type": "event"
    },
    {
      "anonymous": false,
      "inputs": [
        {
          "indexed": true,
          "internalType": "address",
          "name": "from",
          "type": "address"
        },
        {
          "indexed": true,
          "internalType": "address",
          "name": "to",
          "type": "address"
        },
        {
          "indexed": true,
          "internalType": "uint256",
          "name": "tokenId",
          "type": "uint256"
        }
      ],
      "name": "Transfer",
      "type": "event"
    },
    {
      "inputs": [
        {
          "internalType": "address",
          "name": "to",
          "type": "address"
        },
        {
          "internalType": "uint256",
          "name": "tokenId",
          "type": "uint256"
        }
      ],
      "name": "approve",
      "outputs": [],
      "stateMutability": "nonpayable",
      "type": "function"
    },
    {
      "inputs": [
        {
          "internalType": "address",
          "name": "owner",
          "type": "address"
        }
      ],
      "name": "balanceOf",
      "outputs": [
        {
          "internalType": "uint256",
          "name": "",
          "type": "uint256"
        }
      ],
      "stateMutability": "view",
      "type": "function"
    },
    {
      "inputs": [
        {
          "internalType": "uint256",
          "name": "tokenId",
          "type": "uint256"
        }
      ],
      "name": "getApproved",
      "outputs": [
        {
          "internalType": "address",
          "name": "",
          "type": "address"
        }
      ],
      "stateMutability": "view",
      "type": "function"
    },
    {
      "inputs": [
        {
          "internalType": "address",
          "name": "owner",
          "type": "address"
        },
        {
          "internalType": "address",
          "name": "operator",
          "type": "address"
        }
      ],
      "name": "isApprovedForAll",
      "outputs": [
        {
          "internalType": "bool",
          "name": "",
          "type": "bool"
        }
      ],
      "stateMutability": "view",
      "type": "function"
    },
    {
      "inputs": [
        {
          "internalType": "address",
          "name": "to",
          "type": "address"
        },
        {
          "internalType": "string",
          "name": "metadataURI",
          "type": "string"
        }
      ],
      "name": "mint",
      "outputs": [
        {
          "internalType": "uint256",
          "name": "",
          "type": "uint256"
        }
      ],
      "stateMutability": "nonpayable",
      "type": "function"
    },
    {
      "inputs": [],
      "name": "name",
      "outputs": [
        {
          "internalType": "string",
          "name": "",
          "type": "string"
        }
      ],
      "stateMutability": "view",
      "type": "function"
    },
    {
      "inputs": [],
      "name": "owner",
      "outputs": [
        {
          "internalType": "address",
          "name": "",
          "type": "address"
        }
      ],
      "stateMutability": "view",
      "type": "function"
    },
    {
      "inputs": [
        {
          "internalType": "uint256",
          "name": "tokenId",
          "type": "uint256"
        }
      ],
      "name": "ownerOf",
      "outputs": [
        {
          "internalType": "address",
          "name": "",
          "type": "address"
        }
      ],
      "stateMutability": "view",
      "type": "function"
    },
    {
      "inputs": [],
      "name": "renounceOwnership",
      "outputs": [],
      "stateMutability": "nonpayable",
      "type": "function"
    },
    {
      "inputs": [
        {
          "internalType": "address",
          "name": "from",
          "type": "address"
        },
        {
          "internalType": "address",
          "name": "to",
          "type": "address"
        },
        {
          "internalType": "uint256",
          "name": "tokenId",
          "type": "uint256"
        }
      ],
      "name": "safeTransferFrom",
      "outputs": [],
      "stateMutability": "nonpayable",
      "type": "function"
    },
    {
      "inputs": [
        {
          "internalType": "address",
          "name": "from",
          "type": "address"
        },
        {
          "internalType": "address",
          "name": "to",
          "type": "address"
        },
        {
          "internalType": "uint256",
          "name": "tokenId",
          "type": "uint256"
        },
        {
          "internalType": "bytes",
          "name": "data",
          "type": "bytes"
        }
      ],
      "name": "safeTransferFrom",
      "outputs": [],
      "stateMutability": "nonpayable",
      "type": "function"
    },
    {
      "inputs": [
        {
          "internalType": "address",
          "name": "operator",
          "type": "address"
        },
        {
          "internalType": "bool",
          "name": "approved",
          "type": "bool"
        }
      ],
      "name": "setApprovalForAll",
      "outputs": [],
      "stateMutability": "nonpayable",
      "type": "function"
    },
    {
      "inputs": [
        {
          "internalType": "bytes4",
          "name": "interfaceId",
          "type": "bytes4"
        }
      ],
      "name": "supportsInterface",
      "outputs": [
        {
          "internalType": "bool",
          "name": "",
          "type": "bool"
        }
      ],
      "stateMutability": "view",
      "type": "function"
    },
    {
      "inputs": [],
      "name": "symbol",
      "outputs": [
        {
          "internalType": "string",
          "name": "",
          "type": "string"
        }
      ],
      "stateMutability": "view",
      "type": "function"
    },
    {
      "inputs": [
        {
          "internalType": "uint256",
          "name": "tokenId",
          "type": "uint256"
        }
      ],
      "name": "tokenURI",
      "outputs": [
        {
          "internalType": "string",
          "name": "",
          "type": "string"
        }
      ],
      "stateMutability": "view",
      "type": "function"
    },
    {
      "inputs": [
        {
          "internalType": "address",
          "name": "from",
          "type": "address"
        },
        {
          "internalType": "address",
          "name": "to",
          "type": "address"
        },
        {
          "internalType": "uint256",
          "name": "tokenId",
          "type": "uint256"
        }
      ],
      "name": "transferFrom",
      "outputs": [],
      "stateMutability": "nonpayable",
      "type": "function"
    },
    {
      "inputs": [
        {
          "internalType": "address",
          "name": "newOwner",
          "type": "address"
        }
      ],
      "name": "transferOwnership",
      "outputs": [],
      "stateMutability": "nonpayable",
      "type": "function"
    },
    {
      "inputs": [
        {
          "internalType": "address",
          "name": "owner",
          "type": "address"
        },
        {
          "internalType": "uint256",
          "name": "tokenId",
          "type": "uint256"
        }
      ],
      "name": "verify",
      "outputs": [
        {
          "internalType": "bool",
          "name": "",
          "type": "bool"
        }
      ],
      "stateMutability": "view",
      "type": "function"
    }
  ],
  "bytecode": "0x60806040523480156200001157600080fd5b506040516200299d3803806200299d833981810160405281019062000037919062000288565b806040518060400160405280601381526020017f536f756c626f756e6443726564656e7469616c000000000000000000000000008152506040518060400160405280600381526020017f53424300000000000000000000000000000000000000000000000000000000008152508160009081620000b5919062000534565b508060019081620000c7919062000534565b505050600073ffffffffffffffffffffffffffffffffffffffff168173ffffffffffffffffffffffffffffffffffffffff16036200013f5760006040517f1e4fbdf70000000000000000000000000000000000000000000000000000000081526004016200013691906200062c565b60405180910390fd5b62000150816200015860201b60201c565b505062000649565b6000600660009054906101000a900473ffffffffffffffffffffffffffffffffffffffff16905081600660006101000a81548173ffffffffffffffffffffffffffffffffffffffff021916908373ffffffffffffffffffffffffffffffffffffffff1602179055508173ffffffffffffffffffffffffffffffffffffffff168173ffffffffffffffffffffffffffffffffffffffff167f8be0079c531659141344cd1fd0a4f28419497f9722a3daafe3b4186f6b6457e060405160405180910390a35050565b600080fd5b600073ffffffffffffffffffffffffffffffffffffffff82169050919050565b6000620002508262000223565b9050919050565b620002628162000243565b81146200026e57600080fd5b50565b600081519050620002828162000257565b92915050565b600060208284031215620002a157620002a06200021e565b5b6000620002b18482850162000271565b91505092915050565b600081519050919050565b7f4e487b7100000000000000000000000000000000000000000000000000000000600052604160045260246000fd5b7f4e487b7100000000000000000000000000000000000000000000000000000000600052602260045260246000fd5b600060028204905060018216806200033c57607f821691505b602082108103620003525762000351620002f4565b5b50919050565b60008190508160005260206000209050919050565b60006020601f8301049050919050565b600082821b905092915050565b600060088302620003bc7fffffffffffffffffffffffffffffffffffffffffffffffffffffffffffffffff826200037d565b620003c886836200037d565b95508019841693508086168417925050509392505050565b6000819050919050565b6000819050919050565b6000620004156200040f6200040984620003e0565b620003ea565b620003e0565b9050919050565b6000819050919050565b6200043183620003f4565b6200044962000440826200041c565b8484546200038a565b825550505050565b600090565b6200046062000451565b6200046d81848462000426565b505050565b5b8181101562000495576200048960008262000456565b60018101905062000473565b5050565b601f821115620004e457620004ae8162000358565b620004b9846200036d565b81016020851015620004c9578190505b620004e1620004d8856200036d565b83018262000472565b50505b505050565b600082821c905092915050565b60006200050960001984600802620004e9565b1980831691505092915050565b6000620005248383620004f6565b9150826002028217905092915050565b6200053f82620002ba565b67ffffffffffffffff8111156200055b576200055a620002c5565b5b62000567825462000323565b6200057482828562000499565b600060209050601f831160018114620005ac576000841562000597578287015190505b620005a3858262000516565b86555062000613565b601f198416620005bc8662000358565b60005b82811015620005e657848901518255600182019150602085019450602081019050620005bf565b8683101562000606578489015162000602601f891682620004f6565b8355505b6001600288020188555050505b505050505050565b620006268162000243565b82525050565b60006020820190506200064360008301846200061b565b92915050565b61234480620006596000396000f3fe608060405234801561001057600080fd5b50600436106101165760003560e01c8063715018a6116100a2578063b88d4fde11610071578063b88d4fde146102df578063c87b56dd146102fb578063d0def5211461032b578063e985e9c51461035b578063f2fde38b1461038b57610116565b8063715018a61461027d5780638da5cb5b1461028757806395d89b41146102a5578063a22cb465146102c357610116565b806323b872dd116100e957806323b872dd146101b557806342842e0e146101d15780636352211e146101ed5780636704fe9f1461021d57806370a082311461024d57610116565b806301ffc9a71461011b57806306fdde031461014b578063081812fc14610169578063095ea7b314610199575b600080fd5b61013560048036038101906101309190611707565b6103a7565b604051610142919061174f565b60405180910390f35b610153610489565b60405161016091906117fa565b60405180910390f35b610183600480360381019061017e9190611852565b61051b565b60405161019091906118c0565b60405180910390f35b6101b360048036038101906101ae9190611907565b610537565b005b6101cf60048036038101906101ca9190611947565b610572565b005b6101eb60048036038101906101e69190611947565b610674565b005b61020760048036038101906102029190611852565b610694565b60405161021491906118c0565b60405180910390f35b61023760048036038101906102329190611907565b6106a6565b604051610244919061174f565b60405180910390f35b6102676004803603810190610262919061199a565b6106e7565b60405161027491906119d6565b60405180910390f35b6102856107a1565b005b61028f6107b5565b60405161029c91906118c0565b60405180910390f35b6102ad6107df565b6040516102ba91906117fa565b60405180910390f35b6102dd60048036038101906102d89190611a1d565b610871565b005b6102f960048036038101906102f49190611b92565b6108ac565b005b61031560048036038101906103109190611852565b6108d1565b60405161032291906117fa565b60405180910390f35b61034560048036038101906103409190611cb6565b610980565b60405161035291906119d6565b60405180910390f35b61037560048036038101906103709190611d12565b6109de565b604051610382919061174f565b60405180910390f35b6103a560048036038101906103a0919061199a565b610a72565b005b60007f80ac58cd000000000000000000000000000000000000000000000000000000007bffffffffffffffffffffffffffffffffffffffffffffffffffffffff1916827bffffffffffffffffffffffffffffffffffffffffffffffffffffffff1916148061047257507f5b5e139f000000000000000000000000000000000000000000000000000000007bffffffffffffffffffffffffffffffffffffffffffffffffffffffff1916827bffffffffffffffffffffffffffffffffffffffffffffffffffffffff1916145b80610482575061048182610af8565b5b9050919050565b60606000805461049890611d81565b80601f01602080910402602001604051908101604052809291908181526020018280546104c490611d81565b80156105115780601f106104e657610100808354040283529160200191610511565b820191906000526020600020905b8154815290600101906020018083116104f457829003601f168201915b5050505050905090565b600061052682610b62565b5061053082610bea565b9050919050565b6040517f08c379a000000000000000000000000000000000000000000000000000000000815260040161056990611e24565b60405180910390fd5b600073ffffffffffffffffffffffffffffffffffffffff168273ffffffffffffffffffffffffffffffffffffffff16036105e45760006040517f64a0ae920000000000000000000000000000000000000000000000000000000081526004016105db91906118c0565b60405180910390fd5b60006105f883836105f3610c27565b610c2f565b90508373ffffffffffffffffffffffffffffffffffffffff168173ffffffffffffffffffffffffffffffffffffffff161461066e578382826040517f64283d7b00000000000000000000000000000000000000000000000000000000815260040161066593929190611e44565b60405180910390fd5b50505050565b61068f838383604051806020016040528060008152506108ac565b505050565b600061069f82610b62565b9050919050565b60008273ffffffffffffffffffffffffffffffffffffffff166106c883610694565b73ffffffffffffffffffffffffffffffffffffffff1614905092915050565b60008073ffffffffffffffffffffffffffffffffffffffff168273ffffffffffffffffffffffffffffffffffffffff160361075a5760006040517f89c62b6400000000000000000000000000000000000000000000000000000000815260040161075191906118c0565b60405180910390fd5b600360008373ffffffffffffffffffffffffffffffffffffffff1673ffffffffffffffffffffffffffffffffffffffff168152602001908152602001600020549050919050565b6107a9610cc1565b6107b36000610d48565b565b6000600660009054906101000a900473ffffffffffffffffffffffffffffffffffffffff16905090565b6060600180546107ee90611d81565b80601f016020809104026020016040519081016040528092919081815260200182805461081a90611d81565b80156108675780601f1061083c57610100808354040283529160200191610867565b820191906000526020600020905b81548152906001019060200180831161084a57829003601f168201915b5050505050905090565b6040517f08c379a00000000000000000000000000000000000000000000000000000000081526004016108a390611e24565b60405180910390fd5b6108b7848484610572565b6108cb6108c2610c27565b85858585610e0e565b50505050565b60606108dc82610b62565b506007600083815260200190815260200160002080546108fb90611d81565b80601f016020809104026020016040519081016040528092919081815260200182805461092790611d81565b80156109745780601f1061094957610100808354040283529160200191610974565b820191906000526020600020905b81548152906001019060200180831161095757829003601f168201915b50505050509050919050565b600061098a610cc1565b6008600081548092919061099d90611eaa565b9190505550600060085490506109b38482610fbf565b826007600083815260200190815260200160002090816109d3919061209e565b508091505092915050565b6000600560008473ffffffffffffffffffffffffffffffffffffffff1673ffffffffffffffffffffffffffffffffffffffff16815260200190815260200160002060008373ffffffffffffffffffffffffffffffffffffffff1673ffffffffffffffffffffffffffffffffffffffff16815260200190815260200160002060009054906101000a900460ff16905092915050565b610a7a610cc1565b600073ffffffffffffffffffffffffffffffffffffffff168173ffffffffffffffffffffffffffffffffffffffff1603610aec5760006040517f1e4fbdf7000000000000000000000000000000000000000000000000000000008152600401610ae391906118c0565b60405180910390fd5b610af581610d48565b50565b60007f01ffc9a7000000000000000000000000000000000000000000000000000000007bffffffffffffffffffffffffffffffffffffffffffffffffffffffff1916827bffffffffffffffffffffffffffffffffffffffffffffffffffffffff1916149050919050565b600080610b6e83610fdd565b9050600073ffffffffffffffffffffffffffffffffffffffff168173ffffffffffffffffffffffffffffffffffffffff1603610be157826040517f7e273289000000000000000000000000000000000000000000000000000000008152600401610bd891906119d6565b60405180910390fd5b80915050919050565b60006004600083815260200190815260200160002060009054906101000a900473ffffffffffffffffffffffffffffffffffffffff169050919050565b600033905090565b600080610c3b84610fdd565b9050600073ffffffffffffffffffffffffffffffffffffffff168173ffffffffffffffffffffffffffffffffffffffff1614610cac576040517f08c379a0000000000000000000000000000000000000000000000000000000008152600401610ca3906121e2565b60405180910390fd5b610cb785858561101a565b9150509392505050565b610cc9610c27565b73ffffffffffffffffffffffffffffffffffffffff16610ce76107b5565b73ffffffffffffffffffffffffffffffffffffffff1614610d4657610d0a610c27565b6040517f118cdaa7000000000000000000000000000000000000000000000000000000008152600401610d3d91906118c0565b60405180910390fd5b565b6000600660009054906101000a900473ffffffffffffffffffffffffffffffffffffffff16905081600660006101000a81548173ffffffffffffffffffffffffffffffffffffffff021916908373ffffffffffffffffffffffffffffffffffffffff1602179055508173ffffffffffffffffffffffffffffffffffffffff168173ffffffffffffffffffffffffffffffffffffffff167f8be0079c531659141344cd1fd0a4f28419497f9722a3daafe3b4186f6b6457e060405160405180910390a35050565b60008373ffffffffffffffffffffffffffffffffffffffff163b1115610fb8578273ffffffffffffffffffffffffffffffffffffffff1663150b7a02868685856040518563ffffffff1660e01b8152600401610e6d9493929190612257565b6020604051808303816000875af1925050508015610ea957506040513d601f19601f82011682018060405250810190610ea691906122b8565b60015b610f2d573d8060008114610ed9576040519150601f19603f3d011682016040523d82523d6000602084013e610ede565b606091505b506000815103610f2557836040517f64a0ae92000000000000000000000000000000000000000000000000000000008152600401610f1c91906118c0565b60405180910390fd5b805160208201fd5b63150b7a0260e01b7bffffffffffffffffffffffffffffffffffffffffffffffffffffffff1916817bffffffffffffffffffffffffffffffffffffffffffffffffffffffff191614610fb657836040517f64a0ae92000000000000000000000000000000000000000000000000000000008152600401610fad91906118c0565b60405180910390fd5b505b5050505050565b610fd9828260405180602001604052806000815250611234565b5050565b60006002600083815260200190815260200160002060009054906101000a900473ffffffffffffffffffffffffffffffffffffffff169050919050565b60008061102684610fdd565b9050600073ffffffffffffffffffffffffffffffffffffffff168373ffffffffffffffffffffffffffffffffffffffff161461106857611067818486611258565b5b600073ffffffffffffffffffffffffffffffffffffffff168173ffffffffffffffffffffffffffffffffffffffff16146110f9576110aa60008560008061131c565b6001600360008373ffffffffffffffffffffffffffffffffffffffff1673ffffffffffffffffffffffffffffffffffffffff168152602001908152602001600020600082825403925050819055505b600073ffffffffffffffffffffffffffffffffffffffff168573ffffffffffffffffffffffffffffffffffffffff161461117c576001600360008773ffffffffffffffffffffffffffffffffffffffff1673ffffffffffffffffffffffffffffffffffffffff168152602001908152602001600020600082825401925050819055505b846002600086815260200190815260200160002060006101000a81548173ffffffffffffffffffffffffffffffffffffffff021916908373ffffffffffffffffffffffffffffffffffffffff160217905550838573ffffffffffffffffffffffffffffffffffffffff168273ffffffffffffffffffffffffffffffffffffffff167fddf252ad1be2c89b69c2b068fc378daa952ba7f163c4a11628f55a4df523b3ef60405160405180910390a4809150509392505050565b61123e83836114e1565b611253611249610c27565b6000858585610e0e565b505050565b6112638383836115da565b61131757600073ffffffffffffffffffffffffffffffffffffffff168373ffffffffffffffffffffffffffffffffffffffff16036112d857806040517f7e2732890000000000000000000000000000000000000000000000000000000081526004016112cf91906119d6565b60405180910390fd5b81816040517f177e802f00000000000000000000000000000000000000000000000000000000815260040161130e9291906122e5565b60405180910390fd5b505050565b80806113555750600073ffffffffffffffffffffffffffffffffffffffff168273ffffffffffffffffffffffffffffffffffffffff1614155b1561148957600061136584610b62565b9050600073ffffffffffffffffffffffffffffffffffffffff168373ffffffffffffffffffffffffffffffffffffffff16141580156113d057508273ffffffffffffffffffffffffffffffffffffffff168173ffffffffffffffffffffffffffffffffffffffff1614155b80156113e357506113e181846109de565b155b1561142557826040517fa9fbf51f00000000000000000000000000000000000000000000000000000000815260040161141c91906118c0565b60405180910390fd5b811561148757838573ffffffffffffffffffffffffffffffffffffffff168273ffffffffffffffffffffffffffffffffffffffff167f8c5be1e5ebec7d5bd14f71427d1e84f3dd0314c0f7b2291e5b200ac8c7c3b92560405160405180910390a45b505b836004600085815260200190815260200160002060006101000a81548173ffffffffffffffffffffffffffffffffffffffff021916908373ffffffffffffffffffffffffffffffffffffffff16021790555050505050565b600073ffffffffffffffffffffffffffffffffffffffff168273ffffffffffffffffffffffffffffffffffffffff16036115535760006040517f64a0ae9200000000000000000000000000000000000000000000000000000000815260040161154a91906118c0565b60405180910390fd5b600061156183836000610c2f565b9050600073ffffffffffffffffffffffffffffffffffffffff168173ffffffffffffffffffffffffffffffffffffffff16146115d55760006040517f73c6ac6e0000000000000000000000000000000000000000000000000000000081526004016115cc91906118c0565b60405180910390fd5b505050565b60008073ffffffffffffffffffffffffffffffffffffffff168373ffffffffffffffffffffffffffffffffffffffff161415801561169257508273ffffffffffffffffffffffffffffffffffffffff168473ffffffffffffffffffffffffffffffffffffffff161480611653575061165284846109de565b5b8061169157508273ffffffffffffffffffffffffffffffffffffffff1661167983610bea565b73ffffffffffffffffffffffffffffffffffffffff16145b5b90509392505050565b6000604051905090565b600080fd5b600080fd5b60007fffffffff0000000000000000000000000000000000000000000000000000000082169050919050565b6116e4816116af565b81146116ef57600080fd5b50565b600081359050611701816116db565b92915050565b60006020828403121561171d5761171c6116a5565b5b600061172b848285016116f2565b91505092915050565b60008115159050919050565b61174981611734565b82525050565b60006020820190506117646000830184611740565b92915050565b600081519050919050565b600082825260208201905092915050565b60005b838110156117a4578082015181840152602081019050611789565b60008484015250505050565b6000601f19601f8301169050919050565b60006117cc8261176a565b6117d68185611775565b93506117e6818560208601611786565b6117ef816117b0565b840191505092915050565b6000602082019050818103600083015261181481846117c1565b905092915050565b6000819050919050565b61182f8161181c565b811461183a57600080fd5b50565b60008135905061184c81611826565b92915050565b600060208284031215611868576118676116a5565b5b60006118768482850161183d565b91505092915050565b600073ffffffffffffffffffffffffffffffffffffffff82169050919050565b60006118aa8261187f565b9050919050565b6118ba8161189f565b82525050565b60006020820190506118d560008301846118b1565b92915050565b6118e48161189f565b81146118ef57600080fd5b50565b600081359050611901816118db565b92915050565b6000806040838503121561191e5761191d6116a5565b5b600061192c858286016118f2565b925050602061193d8582860161183d565b9150509250929050565b6000806000606084860312156119605761195f6116a5565b5b600061196e868287016118f2565b935050602061197f868287016118f2565b92505060406119908682870161183d565b9150509250925092565b6000602082840312156119b0576119af6116a5565b5b60006119be848285016118f2565b91505092915050565b6119d08161181c565b82525050565b60006020820190506119eb60008301846119c7565b92915050565b6119fa81611734565b8114611a0557600080fd5b50565b600081359050611a17816119f1565b92915050565b60008060408385031215611a3457611a336116a5565b5b6000611a42858286016118f2565b9250506020611a5385828601611a08565b9150509250929050565b600080fd5b600080fd5b7f4e487b7100000000000000000000000000000000000000000000000000000000600052604160045260246000fd5b611a9f826117b0565b810181811067ffffffffffffffff82111715611abe57611abd611a67565b5b80604052505050565b6000611ad161169b565b9050611add8282611a96565b919050565b600067ffffffffffffffff821115611afd57611afc611a67565b5b611b06826117b0565b9050602081019050919050565b82818337600083830152505050565b6000611b35611b3084611ae2565b611ac7565b905082815260208101848484011115611b5157611b50611a62565b5b611b5c848285611b13565b509392505050565b600082601f830112611b7957611b78611a5d565b5b8135611b89848260208601611b22565b91505092915050565b60008060008060808587031215611bac57611bab6116a5565b5b6000611bba878288016118f2565b9450506020611bcb878288016118f2565b9350506040611bdc8782880161183d565b925050606085013567ffffffffffffffff811115611bfd57611bfc6116aa565b5b611c0987828801611b64565b91505092959194509250565b600067ffffffffffffffff821115611c3057611c2f611a67565b5b611c39826117b0565b9050602081019050919050565b6000611c59611c5484611c15565b611ac7565b905082815260208101848484011115611c7557611c74611a62565b5b611c80848285611b13565b509392505050565b600082601f830112611c9d57611c9c611a5d565b5b8135611cad848260208601611c46565b91505092915050565b60008060408385031215611ccd57611ccc6116a5565b5b6000611cdb858286016118f2565b925050602083013567ffffffffffffffff811115611cfc57611cfb6116aa565b5b611d0885828601611c88565b9150509250929050565b60008060408385031215611d2957611d286116a5565b5b6000611d37858286016118f2565b9250506020611d48858286016118f2565b9150509250929050565b7f4e487b7100000000000000000000000000000000000000000000000000000000600052602260045260246000fd5b60006002820490506001821680611d9957607f821691505b602082108103611dac57611dab611d52565b5b50919050565b7f536f756c626f756e6443726564656e7469616c3a20417070726f76616c73206e60008201527f6f7420616c6c6f77656420666f7220736f756c626f756e6420746f6b656e7300602082015250565b6000611e0e603f83611775565b9150611e1982611db2565b604082019050919050565b60006020820190508181036000830152611e3d81611e01565b9050919050565b6000606082019050611e5960008301866118b1565b611e6660208301856119c7565b611e7360408301846118b1565b949350505050565b7f4e487b7100000000000000000000000000000000000000000000000000000000600052601160045260246000fd5b6000611eb58261181c565b91507fffffffffffffffffffffffffffffffffffffffffffffffffffffffffffffffff8203611ee757611ee6611e7b565b5b600182019050919050565b60008190508160005260206000209050919050565b60006020601f8301049050919050565b600082821b905092915050565b600060088302611f547fffffffffffffffffffffffffffffffffffffffffffffffffffffffffffffffff82611f17565b611f5e8683611f17565b95508019841693508086168417925050509392505050565b6000819050919050565b6000611f9b611f96611f918461181c565b611f76565b61181c565b9050919050565b6000819050919050565b611fb583611f80565b611fc9611fc182611fa2565b848454611f24565b825550505050565b600090565b611fde611fd1565b611fe9818484611fac565b505050565b5b8181101561200d57612002600082611fd6565b600181019050611fef565b5050565b601f8211156120525761202381611ef2565b61202c84611f07565b8101602085101561203b578190505b61204f61204785611f07565b830182611fee565b50505b505050565b600082821c905092915050565b600061207560001984600802612057565b1980831691505092915050565b600061208e8383612064565b9150826002028217905092915050565b6120a78261176a565b67ffffffffffffffff8111156120c0576120bf611a67565b5b6120ca8254611d81565b6120d5828285612011565b600060209050601f83116001811461210857600084156120f6578287015190505b6121008582612082565b865550612168565b601f19841661211686611ef2565b60005b8281101561213e57848901518255600182019150602085019450602081019050612119565b8683101561215b5784890151612157601f891682612064565b8355505b6001600288020188555050505b505050505050565b7f536f756c626f756e6443726564656e7469616c3a20546f6b656e20697320736f60008201527f756c626f756e6420616e64206e6f6e2d7472616e7366657261626c6500000000602082015250565b60006121cc603c83611775565b91506121d782612170565b604082019050919050565b600060208201905081810360008301526121fb816121bf565b9050919050565b600081519050919050565b600082825260208201905092915050565b600061222982612202565b612233818561220d565b9350612243818560208601611786565b61224c816117b0565b840191505092915050565b600060808201905061226c60008301876118b1565b61227960208301866118b1565b61228660408301856119c7565b8181036060830152612298818461221e565b905095945050505050565b6000815190506122b2816116db565b92915050565b6000602082840312156122ce576122cd6116a5565b5b60006122dc848285016122a3565b91505092915050565b60006040820190506122fa60008301856118b1565b61230760208301846119c7565b939250505056fea264697066735822122059985c8c9f184a94b981bacc158bf816771f1bc270fb00ba1b011121e17bcb7664736f6c63430008140033",
  "linkReferences": {},
  "deployedLinkReferences": {}
}